{
  "_format": "hh-sol-artifact-1",
  "contractName": "PaymentSender",
  "sourceName": "contracts/PaymentContract.sol",
  "abi": [
    {
      "anonymous": false,
      "inputs": [
        {
          "indexed": true,
          "internalType": "address",
          "name": "from",
          "type": "address"
        },
        {
          "indexed": true,
          "internalType": "address",
          "name": "to",
          "type": "address"
        },
        {
          "indexed": false,
          "internalType": "uint256",
          "name": "amount",
          "type": "uint256"
        }
      ],
      "name": "PaymentSent",
      "type": "event"
    },
    {
      "inputs": [
        {
          "internalType": "address payable",
          "name": "recipient",
          "type": "address"
        },
        {
          "internalType": "uint256",
          "name": "amount",
          "type": "uint256"
        }
      ],
      "name": "send",
      "outputs": [],
      "stateMutability": "payable",
      "type": "function"
    },
    {
      "stateMutability": "payable",
      "type": "receive"
    }
  ],
  "bytecode": "0x6080604052348015600f57600080fd5b5061072c8061001f6000396000f3fe6080604052600436106100225760003560e01c8063d0679d341461002e57610029565b3661002957005b600080fd5b610048600480360381019061004391906103b6565b61004a565b005b600073ffffffffffffffffffffffffffffffffffffffff168273ffffffffffffffffffffffffffffffffffffffff16036100b9576040517f08c379a00000000000000000000000000000000000000000000000000000000081526004016100b090610453565b60405180910390fd5b600081116100fc576040517f08c379a00000000000000000000000000000000000000000000000000000000081526004016100f3906104bf565b60405180910390fd5b8034101561013f576040517f08c379a00000000000000000000000000000000000000000000000000000000081526004016101369061052b565b60405180910390fd5b60008273ffffffffffffffffffffffffffffffffffffffff16826040516101659061057c565b60006040518083038185875af1925050503d80600081146101a2576040519150601f19603f3d011682016040523d82523d6000602084013e6101a7565b606091505b50509050806101eb576040517f08c379a00000000000000000000000000000000000000000000000000000000081526004016101e2906105dd565b60405180910390fd5b600082346101f9919061062c565b905060008111156102b25760003373ffffffffffffffffffffffffffffffffffffffff168260405161022a9061057c565b60006040518083038185875af1925050503d8060008114610267576040519150601f19603f3d011682016040523d82523d6000602084013e61026c565b606091505b50509050806102b0576040517f08c379a00000000000000000000000000000000000000000000000000000000081526004016102a7906106ac565b60405180910390fd5b505b8373ffffffffffffffffffffffffffffffffffffffff163373ffffffffffffffffffffffffffffffffffffffff167fd52bd61f7c422d441e024604f4517878fd3305d6acf0fe37baef23ed21af6bc98560405161030f91906106db565b60405180910390a350505050565b600080fd5b600073ffffffffffffffffffffffffffffffffffffffff82169050919050565b600061034d82610322565b9050919050565b61035d81610342565b811461036857600080fd5b50565b60008135905061037a81610354565b92915050565b6000819050919050565b61039381610380565b811461039e57600080fd5b50565b6000813590506103b08161038a565b92915050565b600080604083850312156103cd576103cc61031d565b5b60006103db8582860161036b565b92505060206103ec858286016103a1565b9150509250929050565b600082825260208201905092915050565b7f726563697069656e743d30000000000000000000000000000000000000000000600082015250565b600061043d600b836103f6565b915061044882610407565b602082019050919050565b6000602082019050818103600083015261046c81610430565b9050919050565b7f616d6f756e743d30000000000000000000000000000000000000000000000000600082015250565b60006104a96008836103f6565b91506104b482610473565b602082019050919050565b600060208201905081810360008301526104d88161049c565b9050919050565b7f696e73756666696369656e74206d73672e76616c756500000000000000000000600082015250565b60006105156016836103f6565b9150610520826104df565b602082019050919050565b6000602082019050818103600083015261054481610508565b9050919050565b600081905092915050565b50565b600061056660008361054b565b915061057182610556565b600082019050919050565b600061058782610559565b9150819050919050565b7f7472616e73666572206661696c65640000000000000000000000000000000000600082015250565b60006105c7600f836103f6565b91506105d282610591565b602082019050919050565b600060208201905081810360008301526105f6816105ba565b9050919050565b7f4e487b7100000000000000000000000000000000000000000000000000000000600052601160045260246000fd5b600061063782610380565b915061064283610380565b925082820390508181111561065a576106596105fd565b5b92915050565b7f726566756e64206661696c656400000000000000000000000000000000000000600082015250565b6000610696600d836103f6565b91506106a182610660565b602082019050919050565b600060208201905081810360008301526106c581610689565b9050919050565b6106d581610380565b82525050565b60006020820190506106f060008301846106cc565b9291505056fea2646970667358221220de2b804a9f820f1654c122bbab28a7eb4032aad565e228358ef9a0f4aea8c86f64736f6c634300081c0033",
  "linkReferences": {},
  "deployedLinkReferences": {}
}